:020000040800F2
:1000000000500020F91100084D1000084F100008A2
:10001000511000085310000855100008000000009F
:100020000000000000000000000000008122000825
:100030005710000800000000212300086523000875
:100040004112000841120008411200084112000844
:100050004112000841120008411200084112000834
:100060004112000841120008411200084112000824
:100070004112000841120008411200084112000814
:100080004112000841120008411200084112000804
:1000900041120008411200084112000841120008F4
:1000A00041120008591000084112000841120008CE
:1000B00041120008411200084112000841120008D4
:1000C00041120008411200084112000841120008C4
:1000D00041120008411200084112000841120008B4
:1000E00041120008411200084112000800000000FF
:1000F0000000000000000000000000000000000000
:0C01000000000000000000005FF808F1A3
:1001100010B5054C237833B9044B13B10448AFF341
:1001200000800123237010BDC406002000000000E1
:100130002879000808B5034B1BB103490348AFF306
:10014000008008BD00000000C806002028790008D3
:10015000034613F8012B002AFBD1181A0138704707
:1001600081F0004102E000BF83F0004330B54FEA68
:1001700041044FEA430594EA050F08BF90EA020FD5
:100180001FBF54EA000C55EA020C7FEA645C7FEA68
:10019000655C00F0E2804FEA5454D4EB5555B8BF8B
:1001A0006D420CDD2C4480EA020281EA030382EAFC
:1001B000000083EA010180EA020281EA0303362D8E
:1001C00088BF30BD11F0004F4FEA01314FF4801C61
:1001D0004CEA113102D0404261EB410113F0004F73
:1001E0004FEA03334CEA133302D0524263EB43032A
:1001F00094EA050F00F0A780A4F10104D5F1200EC8
:100200000DDB02FA0EFC22FA05F2801841F1000122
:1002100003FA0EF2801843FA05F359410EE0A5F1F6
:1002200020050EF1200E012A03FA0EFC28BF4CF027
:10023000020C43FA05F3C01851EBE37101F00045DD
:1002400007D54FF0000EDCF1000C7EEB00006EEBEA
:100250000101B1F5801F1BD3B1F5001F0CD3490874
:100260005FEA30004FEA3C0C04F101044FEA4452CB
:1002700012F5800F80F09A80BCF1004F08BF5FEA52
:10028000500C50F1000041EB045141EA050130BD32
:100290005FEA4C0C404141EB0101013C28BFB1F544
:1002A000801FE9D291F0000F04BF01460020B1FA8F
:1002B00081F308BF2033A3F10B03B3F120020CDA62
:1002C0000C3208DD02F1140CC2F10C0201FA0CF040
:1002D00021FA02F10CE002F11402D8BFC2F1200CA5
:1002E00001FA02F120FA0CFCDCBF41EA0C0190405B
:1002F000E41AA2BF01EB0451294330BD6FEA0404A4
:100300001F3C1CDA0C340EDC04F11404C4F120028E
:1003100020FA04F001FA02F340EA030021FA04F3A0
:1003200045EA030130BDC4F10C04C4F1200220FAF7
:1003300002F001FA04F340EA0300294630BD21FA35
:1003400004F0294630BD94F0000F83F4801306BFFB
:1003500081F480110134013D4EE77FEA645C18BFEF
:100360007FEA655C29D094EA050F08BF90EA020F86
:1003700005D054EA000C04BF1946104630BD91EA7E
:10038000030F1EBF0021002030BD5FEA545C05D181
:100390004000494128BF41F0004130BD14F58004C0
:1003A0003CBF01F5801130BD01F0004545F0FE4134
:1003B00041F470014FF0000030BD7FEA645C1ABF69
:1003C000194610467FEA655C1CBF0B46024650EAA0
:1003D000013406BF52EA033591EA030F41F40021CC
:1003E00030BD00BF90F0000F04BF0021704730B552
:1003F0004FF4806404F132044FF000054FF0000127
:1004000050E700BF90F0000F04BF0021704730B5E7
:100410004FF4806404F1320410F0004548BF4042BC
:100420004FF000013EE700BF42004FEAE2014FEA11
:1004300031014FEA02701FBF12F07F4393F07F4FEC
:1004400081F06051704732F07F4208BF704793F0EF
:100450007F4F04BF41F40021704730B54FF4607402
:1004600001F0004521F000411CE700BF50EA010205
:1004700008BF704730B54FF000050AE050EA0102AE
:1004800008BF704730B511F0004502D5404261EB1E
:1004900041014FF4806404F132045FEA915C3FF45F
:1004A000D8AE4FF003025FEADC0C18BF03325FEAFC
:1004B000DC0C18BF033202EBDC02C2F1200300FAAD
:1004C00003FC20FA02F001FA03FE40EA0E0021FAD2
:1004D00002F11444BDE600BF70B54FF0FF0C4CF4C0
:1004E000E06C1CEA11541DBF1CEA135594EA0C0F72
:1004F00095EA0C0F00F0DEF82C4481EA030621EAAD
:100500004C5123EA4C5350EA013518BF52EA0335E7
:1005100041F4801143F4801338D0A0FB02CE4FF099
:100520000005E1FB02E506F00042E0FB03E54FF0C9
:100530000006E1FB03569CF0000F18BF4EF0010EC1
:10054000A4F1FF04B6F5007F64F5407404D25FEABD
:100550004E0E6D4146EB060642EAC62141EA555170
:100560004FEAC52040EA5E504FEACE2EB4F1FD0CB2
:1005700088BFBCF5E06F1ED8BEF1004F08BF5FEA30
:10058000500E50F1000041EB045170BD06F00046E2
:1005900046EA010140EA020081EA0301B4EB5C048F
:1005A000C2BFD4EB0C0541EA045170BD41F4801187
:1005B0004FF0000E013C00F3AB8014F1360FDEBFAC
:1005C000002001F0004170BDC4F10004203C35DA88
:1005D0000C341BDC04F11404C4F1200500FA05F30B
:1005E00020FA04F001FA05F240EA020001F00042AC
:1005F00021F0004110EBD37021FA04F642EB060122
:100600005EEA430E08BF20EAD37070BDC4F10C044B
:10061000C4F1200500FA04F320FA05F001FA04F20F
:1006200040EA020001F0004110EBD37041F10001FB
:100630005EEA430E08BF20EAD37070BDC4F1200506
:1006400000FA05F24EEA020E20FA04F301FA05F26E
:1006500043EA020321FA04F001F0004121FA04F216
:1006600020EA020000EBD3705EEA430E08BF20EAE6
:10067000D37070BD94F0000F0FD101F00046400020
:1006800041EB010111F4801F08BF013CF7D041EAA2
:10069000060195F0000F18BF704703F000465200A6
:1006A00043EB030313F4801F08BF013DF7D043EA77
:1006B0000603704794EA0C0F0CEA135518BF95EA2D
:1006C0000C0F0CD050EA410618BF52EA4306D1D1B4
:1006D00081EA030101F000414FF0000070BD50EAD3
:1006E000410606BF1046194652EA430619D094EA5D
:1006F0000C0F02D150EA013613D195EA0C0F05D147
:1007000052EA03361CBF104619460AD181EA03019A
:1007100001F0004141F0FE4141F470014FF0000052
:1007200070BD41F0FE4141F4780170BD70B54FF0ED
:10073000FF0C4CF4E06C1CEA11541DBF1CEA13556D
:1007400094EA0C0F95EA0C0F00F0A7F8A4EB05044F
:1007500081EA030E52EA03354FEA013100F0888046
:100760004FEA03334FF0805545EA131343EA12630F
:100770004FEA022245EA111545EA10654FEA0026C4
:100780000EF000419D4208BF964244F1FD0404F57D
:10079000407402D25B084FEA3202B61A65EB0305D9
:1007A0005B084FEA32024FF480104FF4002CB6EB96
:1007B000020E75EB030E22BFB61A754640EA0C0016
:1007C0005B084FEA3202B6EB020E75EB030E22BF56
:1007D000B61A754640EA5C005B084FEA3202B6EB97
:1007E000020E75EB030E22BFB61A754640EA9C0056
:1007F0005B084FEA3202B6EB020E75EB030E22BF26
:10080000B61A754640EADC0055EA060E18D04FEAE3
:10081000051545EA16754FEA06164FEAC30343EA83
:1008200052734FEAC2025FEA1C1CC0D111F4801F50
:100830000BD141EA00014FF000004FF0004CB6E749
:1008400011F4801F04BF01430020B4F1FD0C88BFE8
:10085000BCF5E06F3FF6AFAEB5EB030C04BFB6EBF3
:10086000020C5FEA500C50F1000041EB045170BDE6
:100870000EF0004E4EEA113114EB5C04C2BFD4EB13
:100880000C0541EA045170BD41F480114FF0000E97
:10089000013C90E645EA060E8DE60CEA135594EA13
:1008A0000C0F08BF95EA0C0F3FF43BAF94EA0C0F16
:1008B0000AD150EA01347FF434AF95EA0C0F7FF48B
:1008C00025AF104619462CE795EA0C0F06D152EADF
:1008D00003353FF4FDAE1046194622E750EA4106C3
:1008E00018BF52EA43067FF4C5AE50EA41047FF4D4
:1008F0000DAF52EA43057FF4EBAE12E74FF0FF3C39
:1009000006E000BF4FF0010C02E000BF4FF0010C09
:100910004DF804CD4FEA410C7FEA6C5C4FEA430C82
:1009200018BF7FEA6C5C1BD001B050EA410C0CBFD1
:1009300052EA430C91EA030F02BF90EA020F002033
:10094000704710F1000F91EA030F58BF994208BF9A
:1009500090422CBFD8176FEAE37040F00100704757
:100960004FEA410C7FEA6C5C02D150EA013C07D1AE
:100970004FEA430C7FEA6C5CD6D152EA033CD3D0F9
:100980005DF8040B704700BF8446104662468C46F3
:100990001946634600E000BF01B5FFF7B7FF002826
:1009A00048BF10F1000F01BD4DF808EDFFF7F4FF4F
:1009B0000CBF012000205DF808FB00BF4DF808EDDA
:1009C000FFF7EAFF34BF012000205DF808FB00BFFD
:1009D0004DF808EDFFF7E0FF94BF012000205DF81F
:1009E00008FB00BF4DF808EDFFF7CEFF94BF0120D4
:1009F00000205DF808FB00BF4DF808EDFFF7C4FFCD
:100A000034BF012000205DF808FB00BF4FEA410C15
:100A10007FEA6C5C02D150EA013C0AD14FEA430CF8
:100A20007FEA6C5C02D152EA033C02D14FF0000035
:100A300070474FF0010070474FEA410212F5001273
:100A400015D211D56FF47873B3EB625212D94FEA15
:100A5000C12343F0004343EA505311F0004F23FAFF
:100A600002F018BF404270474FF00000704750EA54
:100A7000013005D111F0004008BF6FF00040704711
:100A80004FF00000704700BF53B94AB9002908BFB2
:100A900000281CBF4FF0FF314FF0FF3000F072B95B
:100AA000ADF1080C6DE904CE00F006F8DDF804E0C5
:100AB000DDE9022304B070472DE9F047089E0D469A
:100AC00004468E46002B4CD18A42944667D9B2FA2E
:100AD00082F353B102FA03FCC3F1200201FA03FED0
:100AE00020FA02F242EA0E0E9C404FEA1C47BEFB7F
:100AF000F7F11FFA8CF507FB11EE01FB05F0220C54
:100B000042EA0E4290420AD91CEB020201F1FF3E7A
:100B100080F01981904240F2168102396244121A23
:100B2000B2FBF7F007FB102200FB05F5A4B244EA84
:100B30000244A5420AD91CEB040400F1FF3280F004
:100B40000481A54240F201816444023840EA014038
:100B50000021641B1EB1DC400023C6E90043BDE850
:100B6000F0878B4208D9002E00F0EA800021C6E908
:100B700000050846BDE8F087B3FA83F1002948D1A3
:100B8000AB4202D3824200F2F880841A65EB030282
:100B900001209646002EE2D0C6E9004EDFE702B9FA
:100BA000FFDEB2FA82F3002B40F08E80881A01211A
:100BB000170C1FFA82FEB0FBF7F507FB1500220C9D
:100BC00042EA00420EFB05F0904208D91CEB0202FB
:100BD00005F1FF3802D2904200F2CC804546121A4D
:100BE000B2FBF7F007FB10220EFB00FEA4B244EAB2
:100BF0000244A64508D91CEB040400F1FF3202D2DE
:100C0000A64500F2B4801046A4EB0E0440EA05406D
:100C1000A0E7C1F120078B4022FA07FC4CEA030C45
:100C200025FA07FA4FEA1C49BAFBF9F88D4020FA79
:100C300007F309FB18AA1FFA8CFE2B4300FA01F5F3
:100C400008FB0EF01C0C44EA0A44A04202FA01F22E
:100C50000BD91CEB040408F1FF3A80F08680A04217
:100C600040F28380A8F102086444241A98B2B4FBCD
:100C7000F9F309FB134403FB0EFE40EA0444A645C6
:100C800008D91CEB040403F1FF306AD2A64568D9E9
:100C9000023B644443EA0840A0FB0293A4EB0E0429
:100CA0009C42C8469E4654D351D0002E67D0B5EB27
:100CB000080364EB0E04CB4004FA07F71F43CC4053
:100CC000C6E9007400214AE702FA03FCC3F12000E0
:100CD000C1409D4024FA00F04FEA1C472843B1FB75
:100CE000F7F507FB15111FFA8CFE020C42EA0142D0
:100CF00005FB0EF1914204FA03F408D91CEB020241
:100D000005F1FF382FD291422DD9023D6244521A8B
:100D1000B2FBF7F107FB112280B240EA024001FB6F
:100D20000EF2824208D91CEB000001F1FF3816D206
:100D3000824214D902396044801A41EA05413AE7F7
:100D4000314630460BE77146E9E61046FEE64D4572
:100D5000ABD2B9EB020863EB0C0E0138A5E74146B4
:100D6000EAE7034696E74546D1E7D0467DE7644487
:100D7000023849E7023D624431E708460AE7314656
:100D8000EDE600BF704700BF00B583B001F08AFAFE
:100D900000230193032200924FF4807210491148FE
:100DA00001F03EFE012812D000230193042300939A
:100DB0000D4B4FF480720D490D4801F031FE0128B2
:100DC00009D001F091FA642001F0C5F9FBE7094868
:100DD00002F030F9E8E7084802F02CF9F1E700BF2B
:100DE0005C790008FD0D0008000000207079000803
:100DF000150E0008647900087879000808B50448E1
:100E000002F018F94FF4487001F0A5F9F7E700BFB8
:100E10008479000838B50546002404E001342146F1
:100E2000054802F0AFF82B68A342F7DC4FF47A7064
:100E300001F091F9FAE700BF8C790008034B0360D9
:100E4000034B0B6080231360704700BFE408002051
:100E5000E406002010B588B00DF1040C074C0FCC4F
:100E6000ACE80F0094E807008CE80700002101A817
:100E700001F03EF9024B186008B010BD407900083F
:100E8000E006002084B00F4B9A6942F010029A618C
:100E90009A6902F010020192019A9A6942F02002C6
:100EA0009A619A6902F020020292029A9A6942F0CB
:100EB00004029A619B6903F004030393039B04B04B
:100EC000704700BF0010024008B50268034B9A4209
:100ED00000D008BD00F0C8F9FBE700BF002C0140BE
:100EE00072B6FEE700B591B02822002106A802F0F4
:100EF000ECF80023019302930393049305930122DA
:100F000006924FF4803307930A9202220D920E93B9
:100F10004FF4E0130F9306A800F038FB80B90F23BD
:100F2000019302210291002303934FF48062049203
:100F3000059301A800F05CFD20B911B05DF804FB39
:100F4000FFF7CEFFFFF7CCFF08B500F07BF9FFF706
:100F5000C9FFFFF797FF00F0F9F8FFF77BFF01F0FB
:100F6000C2F8FEE700B583B0114B9A6942F0010266
:100F70009A619A6902F001020092009ADA6942F0DD
:100F80008052DA61DB6903F080530193019B0022F8
:100F90000F216FF0010000F08BF9064A536823F02F
:100FA000E06343F00073536003B05DF804FB00BFDF
:100FB000001002400000014030B589B004461E4BCD
:100FC0009A6942F400629A619B6903F40063019399
:100FD000019B02A903A800F0E7FD00F0D5FD174A28
:100FE000A2FB00239B0C013B1548164A026040F20D
:100FF000E732C2604360002303618360836100F0D5
:1010000023FF054610B1284609B030BD0C4800F05A
:10101000EBFD05460028F6D1192000F081F90F2CD0
:1010200001D90125EFE700222146192000F040F9FF
:10103000054B1C60E7E700BF0010024083DE1B4346
:1010400038090020002C01400C000020FEE7FEE7DC
:10105000FEE7FEE7FEE7704708B5024800F0FCFD3A
:1010600008BD00BF380900200120704708B502F014
:101070007BF8162303604FF0FF3008BD08B54FF032
:10108000FF31FFF7F3FFFEE770B50C46164600256B
:1010900006E0AFF30080214601F8010B01350C4654
:1010A000B542F6DB304670BD70B50C4616460025DD
:1010B00004E014F8010B00F037F80135B542F8DB15
:1010C000304670BD4FF0FF3070474FF400534B6017
:1010D00000207047012070470020704710B503467C
:1010E0000C4A0D490D48006840B10C4800680344A3
:1010F000521A934206D8094A136010BD0748084C9B
:101100000460F2E702F030F80C2303604FF0FF3088
:10111000F3E700BF00500020000400008009002019
:10112000281A00207047000000B583B001904FF4EA
:101130007A7304220DEB0201034800F06FFF01985F
:1011400003B05DF804FB00BF8409002008B50A481D
:101150000A4B03604FF4E133436000238360C360B4
:1011600003610C2242618361C36100F027FF00B973
:1011700008BDFFF7B5FEFBE78409002000380140F9
:1011800010B586B00023029303930493059302687D
:10119000174B9A4201D006B010BD03F558439A6927
:1011A00042F480429A619A6902F480420092009A65
:1011B0009A6942F004029A619B6903F00403019367
:1011C000019B4FF4007302930223039303230593BF
:1011D000084C02A9204600F0B1F84FF48063029356
:1011E00000230393049302A9204600F0A7F8D2E756
:1011F0000038014000080140FFF794FF0B480C49FC
:101200000C4A002302E0D458C4500433C4188C4262
:10121000F9D3094A094C002301E013600432A242C9
:10122000FBD301F0A7FFFFF78FFE704700000020FF
:10123000C4060020887D0008C4060020281A00206B
:10124000FEE7000008B5074A136843F01003136077
:10125000032000F01BF80F20FFF7AEFEFFF782FE21
:10126000002008BD00200240034A1168034B1B7890
:101270000B441360704700BFCC0900200800002019
:10128000014B1868704700BFCC090020074AD3689B
:1012900023F4E0631B041B0C000200F4E060034332
:1012A00043F0BF6343F40033D360704700ED00E0C8
:1012B00000B5194BDB68C3F30223C3F1070CBCF183
:1012C000040F28BF4FF0040C03F1040EBEF1060F0B
:1012D00018D9033B4FF0FF3E0EFA0CFC21EA0C013B
:1012E00099400EFA03FE22EA0E020A4300280BDBA5
:1012F0001201D2B200F1604000F5614080F8002395
:101300005DF804FB0023E5E700F00F001201D2B204
:10131000024B1A54F4E700BF00ED00E014ED00E0CA
:10132000002807DB00F01F02400901239340024A16
:1013300042F82030704700BF00E100E070B582B095
:101340000024A446A6E0804DAB4210D007D97F4DC3
:10135000AB420CD005F58035AB4208D013E0A5F5C3
:101360008015AB4203D005F57025AB4207D18B68E1
:10137000002B58D0012B51D04261082403E0A5F581
:101380008015AB42F3D0BEF1FF0F4ED80646BEF13A
:10139000FF0F4CD84FEA8C0233680F25954023EAA3
:1013A000050304FA02F2134333604B6813F0805FC5
:1013B0006ED0674B9A6942F001029A619B6903F013
:1013C00001030193019B4FEA9C02951C614B53F86A
:1013D00025600CF00305AD000F23AB4026EA0306A1
:1013E0005D4B984229D003F58063984200F08E80CF
:1013F00003F58063984200F08B8003F58063984288
:1014000019D004231AE0CC68BDE7CC680434BAE7ED
:10141000CC680834B7E7CC680C34B4E70261082420
:10142000B1E70024AFE70424ADE7061DAFE7ACF158
:1014300008029200B0E7032300E00023AB403343EF
:101440000232444D45F822304B6813F4801F61D0BE
:10145000424A936843EA0E0393604B6813F4001FFB
:101460005ED03E4AD36843EA0E03D3604B6813F460
:10147000003F5BD0394A536843EA0E0353604B6820
:1014800013F4803F58D0354A136843EA0E031360C3
:101490000CF1010C0B6833FA0CF253D0012202FA62
:1014A0000CF203EA020E32EA0303F1D14B68122B6D
:1014B0003FF649AF122B3FF666AF01A555F823F072
:1014C0006F13000807140008111400082314000803
:1014D0008713000887130008871300088713000884
:1014E0008713000887130008871300088713000874
:1014F0008713000887130008871300088713000864
:10150000871300080B14000817140008012395E73F
:10151000022393E7114A936823EA0E0393609CE742
:101520000E4AD36823EA0E03D3609FE70B4A536841
:1015300023EA0E035360A2E7084A136823EA0E0366
:101540001360A5E702B070BD00002210000031104A
:10155000001002400000014000080140000401406A
:1015600082B0084B1B68084AA2FB03235B0A00FBFE
:1015700003F3019300BF019B5A1E0192002BF9D186
:1015800002B0704704000020D34D6210002800F024
:10159000F18170B582B00446036813F0010F2CD0BE
:1015A000994B5B6803F00C03042B1DD0964B5B68D2
:1015B00003F00C03082B12D06368B3F5803F41D0D1
:1015C000002B55D103F1804303F504331A6822F44C
:1015D00080321A601A6822F480221A6037E08A4B3F
:1015E0005B6813F4803FE7D0874B1B6813F4003F20
:1015F00003D06368002B00F0BF81236813F0020F53
:1016000075D0814B5B6813F00C0F5FD07E4B5B682D
:1016100003F00C03082B54D02369002B00F08A80C0
:101620007A4B01221A60FFF72BFE0546764B1B68AA
:1016300013F0020F75D1FFF723FE401B0228F5D9E6
:1016400003209EE1704A136843F48033136063689B
:1016500043B3FFF715FE05466B4B1B6813F4003FC1
:10166000CBD1FFF70DFE401B6428F5D9032088E19C
:10167000B3F5A02F09D0644B1A6822F480321A60A7
:101680001A6822F480221A60E1E703F18043A3F58F
:101690003C331A6842F480221A601A6842F480329D
:1016A0001A60D4E7FFF7ECFD0546574B1B6813F4AF
:1016B000003FA2D0FFF7E4FD401B6428F5D90320CA
:1016C0005FE1514B5B6813F4803FA5D14E4B1B6823
:1016D00013F0020F03D02369012B40F04F814A4AD7
:1016E000136823F0F803616943EAC10313602368B8
:1016F00013F0080F33D0A369002B5CD0434B0122B9
:10170000C3F88024FFF7BCFD05463F4B5B6A13F02E
:10171000020F21D1FFF7B4FD401B0228F5D90320A9
:101720002FE1394A136823F0F803616943EAC103E2
:101730001360DCE7354B00221A60FFF7A1FD054678
:10174000314B1B6813F0020FD1D0FFF799FD401BFE
:101750000228F5D9032014E10120FFF701FF2368D7
:1017600013F0040F00F09680274BDB6913F0805FC5
:1017700034D1254BDA6942F08052DA61DB6903F03B
:1017800080530193019B0125214B1B6813F4807F3B
:1017900026D0E368012B3DD0002B53D103F18043C9
:1017A00003F504331A6A22F001021A621A6A22F05F
:1017B00004021A6233E0154B0022C3F88024FFF7BD
:1017C0005FFD0546104B5B6A13F0020FC7D0FFF7B1
:1017D00057FD401B0228F5D90320D2E00025D3E7AE
:1017E0000B4A136843F480731360FFF749FD064604
:1017F000074B1B6813F4807FCBD1FFF741FD801BA3
:101800006428F5D90320BCE00010024000004242E9
:10181000007000405F4A136A43F001031362E368FB
:1018200033B3FFF72DFD06465A4B1B6A13F0020F28
:101830002FD1FFF725FD801B41F288339842F3D961
:1018400003209EE0052B09D0524B1A6A22F00102B8
:101850001A621A6A22F004021A62E0E74D4B1A6A11
:1018600042F004021A621A6A42F001021A62D6E7D2
:10187000FFF706FD0646474B1B6A13F0020F08D020
:10188000FFF7FEFC801B41F288339842F3D9032016
:1018900077E0E5B9E369002B72D03E4A526802F066
:1018A0000C02082A56D0022B17D03B4B00221A6696
:1018B000FFF7E6FC0446374B1B6813F0007F47D068
:1018C000FFF7DEFC001B0228F5D9032059E0314A5E
:1018D000D36923F08053D361DCE72F4B00221A66D3
:1018E000FFF7CEFC05462B4B1B6813F0007F06D09C
:1018F000FFF7C6FC401B0228F5D9032041E0236A0C
:10190000B3F5803F1AD023494B6823F47413226A3D
:10191000606A024313434B601F4B01221A66FFF7B4
:10192000AFFC04461B4B1B6813F0007F0ED1FFF782
:10193000A7FC001B0228F5D9032022E0154A5368B2
:1019400023F40033A1680B435360DCE7002018E068
:10195000002016E0012B16D00E4B5B6803F480319B
:10196000226A914211D103F47013626A93420ED13C
:10197000002006E001207047012002E0012000E085
:10198000002002B070BD0120FBE70120F9E7012033
:10199000F7E700BF00100240000042420F4B5B68B7
:1019A00003F00C02082A01D00D487047C3F38342AC
:1019B0000C49885C13F4803F0BD0084B5B68C3F381
:1019C0004043094AD35C064A02FB00F0B0FBF3F047
:1019D0007047064B03FB00F0704700BF0010024049
:1019E00000127A00D0790008E079000800093D0073
:1019F000002800F0A08070B50D460446524B1B68CD
:101A000003F007038B420BD24F4A136823F00703FE
:101A10000B431360136803F007038B4240F08D8083
:101A2000236813F0020F17D013F0040F04D0474AB5
:101A3000536843F4E0635360236813F0080F04D045
:101A4000424A536843F460535360404A536823F05A
:101A5000F003A1680B435360236813F0010F31D0EA
:101A60006368012B20D0022B25D0384A126812F06F
:101A7000020F64D035494A6822F0030213434B60D9
:101A8000FFF7FEFB0646314B5B6803F00C03626810
:101A9000B3EB820F16D0FFF7F3FB801B41F28833C4
:101AA0009842F0D9032045E0284A126812F4003F1A
:101AB000E0D101203EE0254A126812F0007FD9D122
:101AC000012037E0204B1B6803F00703AB420AD923
:101AD0001D4A136823F007032B431360136803F0B8
:101AE0000703AB422DD1236813F0040F06D0174A29
:101AF000536823F4E063E1680B435360236813F0F9
:101B0000080F07D0114A536823F46053216943EA50
:101B1000C1035360FFF742FF0C4B5B68C3F3031331
:101B20000B4AD35CD8400B4B18600B4B1868FFF77F
:101B300043FA002070BD012070470120FAE7012020
:101B4000F8E70120F6E700BF002002400010024045
:101B5000B8790008040000200C000020014B186830
:101B6000704700BF0400002008B5FFF7F7FF044BE3
:101B70005B68C3F30223034AD35CD84008BD00BFAF
:101B800000100240C879000808B5FFF7E7FF044BD2
:101B90005B68C3F3C223034AD35CD84008BD00BFCF
:101BA00000100240C87900080F2303600B4B5A68ED
:101BB00002F0030242605A6802F0F00282605A6842
:101BC00002F4E062C2605B68DB0803F4E063036177
:101BD000034B1B6803F007030B60704700100240C3
:101BE000002002407047000090F83D30DBB2012B2E
:101BF00027D1022380F83D300268D36843F0010307
:101C0000D3600368114A934210D0B3F1804F0DD0D6
:101C1000A2F59432934209D002F58062934205D036
:101C20001A6842F001021A60002070479A6802F0B8
:101C30000702062A07D01A6842F001021A60002043
:101C40007047012070470020704700BF002C014002
:101C5000704770477047704710B5044603681A69AB
:101C600012F0020F11D0DA6812F0020F0DD06FF0EF
:101C700002021A610123037703689B6913F0030FC3
:101C800070D0FFF7E6FF0023237723681A6912F06C
:101C9000040F12D0DA6812F0040F0ED06FF00402B5
:101CA0001A610223237723689B6913F4407F5FD076
:101CB0002046FFF7CEFF0023237723681A6912F02E
:101CC000080F12D0DA6812F0080F0ED06FF0080279
:101CD0001A61042323772368DB6913F0030F4ED0C6
:101CE0002046FFF7B6FF0023237723681A6912F016
:101CF000100F12D0DA6812F0100F0ED06FF0100231
:101D00001A61082323772368DB6913F4407F3DD0F1
:101D10002046FFF79EFF0023237723681A6912F0FD
:101D2000010F03D0DA6812F0010F36D123681A6967
:101D300012F0800F03D0DA6812F0800F34D12368DC
:101D40001A6912F0400F03D0DA6812F0400F32D156
:101D500023681A6912F0200F03D0DA6812F0200FFE
:101D600030D110BDFFF774FF2046FFF773FF8AE7FD
:101D70002046FFF76DFF2046FFF76CFF9BE72046EC
:101D8000FFF766FF2046FFF765FFACE72046FFF749
:101D90005FFF2046FFF75EFFBDE76FF001021A61AB
:101DA0002046FFF791F8C1E76FF080021A612046E4
:101DB00000F077F8C3E76FF040021A612046FFF7A2
:101DC0004AFFC5E76FF020021A61204600F068F86C
:101DD000C7E7000003681B4A90420AD0B0F1804F69
:101DE00007D0A2F59432904203D002F5806290426F
:101DF00003D123F070034A681343124A90420AD079
:101E0000B0F1804F07D0A2F59432904203D002F592
:101E10008062904203D123F44073CA68134323F0D5
:101E200080034A69134303608B68C3620B68836253
:101E3000044B984202D00123436170470B6903634E
:101E4000F9E700BF002C014040B310B5044690F8FC
:101E50003D30F3B1022384F83D30214651F8040BA4
:101E6000FFF7B8FF012384F8463084F83E3084F849
:101E70003F3084F8403084F8413084F8423084F8B0
:101E8000433084F8443084F8453084F83D300020F5
:101E900010BD80F83C30FFF7A5FEDBE7012070475E
:101EA0007047704710B504460268136923F4405325
:101EB000C1680B43136183680269134342691A4383
:101EC0000168CB6823F4B05323F00C031343CB60B9
:101ED0000268536923F4407381690B4353610268BC
:101EE000134B9A4220D0FFF73FFE024602EB8202DC
:101EF00002EB820263689B00B2FBF3F20D48A0FB89
:101F000002314909642303FB11231B013233A0FB77
:101F100003035B0903F0F00202EB011203F00F036D
:101F2000216813448B6010BDFFF72EFE0246DDE7EB
:101F3000003801401F85EB512DE9F84305460F4657
:101F400016469946DDF820802B681C6837EA0404A1
:101F50000CBF01240024B4422DD1B8F1FF3FF3D0CF
:101F6000B8F1000F05D0FFF78BF9A0EB0900404551
:101F7000EAD92A6802F10C0353E8003F23F4D07336
:101F80000C3242E800310029F3D12A6802F114032F
:101F900053E8003F23F00103143242E800310029E6
:101FA000F3D1202385F8413085F84230002385F8AD
:101FB0004030032000E00020BDE8F88360B310B596
:101FC000044690F8413013B3242384F8413022684A
:101FD000D36823F40053D3602046FFF763FF2268E1
:101FE000136923F4904313612268536923F02A0391
:101FF00053612268D36843F40053D36000206064C7
:10200000202384F8413084F84230606310BD80F8AA
:102010004030FFF7B5F8D7E7012070472DE9F041D0
:1020200082B01E4690F84130DBB2202B4BD10446E3
:102030000D46904600294AD00AB9012044E0002309
:102040004364212380F84130FFF71AF90746A4F8CA
:102050002480A4F82680A368B3F5805F02D04FF0F7
:1020600000080FE02369FBB14FF000080AE038F8E0
:10207000023B2268C3F308035360E28C92B2013A38
:1020800092B2E284E38C9BB28BB100963B46002275
:1020900080212046FFF750FFD8B9002DE7D015F872
:1020A000012B23685A60E8E7A8460025EAE7009676
:1020B0003B46002240212046FFF73EFF58B920232F
:1020C00084F8413000E0022002B0BDE8F081012038
:1020D000FAE70320F8E70320F6E7842801D003306D
:1020E00070470020704708B500F0CEFC002008BD06
:1020F0002DE9F04387B00E464469C4B18569B5B196
:102100004768D0F80080D0F81090B0F90800FFF7C9
:10211000E4FF02950194009033464A464146384612
:1021200000F044FC0590059807B0BDE8F0834468D2
:1021300005680769B0F90800FFF7CFFF05AB019309
:1021400000903346BAB22946204600F069FC0128C7
:10215000E9D00020E8E708B500B9012000F0DEFD75
:10216000002008BD00F1080343604FF0FF32826099
:10217000C36003610023036070470023036170475D
:1021800043684B609A688A6051609960086103688F
:1021900001330360704730B40D68B5F1FF3F11D0D3
:1021A00000F108031C465B681A68AA42FAD9636802
:1021B0004B6099608C606160086103680133036063
:1021C00030BC70470469F2E70369416882688A603D
:1021D000416851605A68824206D0002202611A6842
:1021E000013A1A601868704782685A60F5E7000083
:1021F00082B0002301930D4B1B68B3F1FF3F08D061
:102200004FF0500383F31188BFF36F8FBFF34F8FED
:10221000FEE74FF0500383F31188BFF36F8FBFF3D6
:102220004F8F019B002BFCD002B0704710000020A4
:1022300006480068006880F3088862B661B6BFF39C
:102240004F8FBFF36F8F00DF00BF000008ED00E08D
:102250004FF0807340F8043C21F0010140F8081C65
:10226000034B40F80C3C40F8202C4038704700BF2E
:10227000F121000800000000000000000000000044
:10228000074B19680868B0E8F00F80F30988BFF3BE
:102290006F8F4FF0000080F311884EF00D0E7047E5
:1022A000F01500204FF0500383F31188BFF36F8FB8
:1022B000BFF34F8F0B4A136801331360012B00D01B
:1022C00070474FF0E023D3F8043D13F0FF0FF7D031
:1022D0004FF0500383F31188BFF36F8FBFF34F8F1D
:1022E000FEE700BF10000020094B1B6843B94FF008
:1022F000500383F31188BFF36F8FBFF34F8FFEE757
:10230000013B034A13600BB983F31188704700BF88
:10231000100000200000000000000000000000008D
:10232000EFF30980BFF36F8F0D4B1A6820E9F00FB0
:1023300010602DE908404FF0500080F3118800F044
:1023400013FD4FF0000080F31188BDE808401968C4
:102350000868B0E8F00F80F30988BFF36F8F70470B
:10236000F015002008B54FF0500383F31188BFF338
:102370006F8FBFF34F8F00F0C9FB28B14FF0E02300
:102380004FF08052C3F8042D002383F3118808BD59
:102390004FF0E022002313619361054B1B68054950
:1023A000A1FB03139B09013B536107231361704792
:1023B00004000020D34D621010B582B02A4B1A7869
:1023C000D2B20192FF221A701B78DBB28DF8033073
:1023D0009DF8033003F05003244A1370244B072266
:1023E0001A6009E0224A1368013B13609DF803302C
:1023F0005B00DBB28DF803309DF8033013F0800FE3
:10240000F0D11B4B1B68032B08D04FF0500383F314
:102410001188BFF36F8FBFF34F8FFEE71B02144A83
:10242000136003F4E0631360019BDBB20E4A137088
:102430004FF0E023D3F8202D42F47002C3F8202D92
:10244000D3F8202D42F07042C3F8202DFFF7A0FFF3
:102450000024084B1C60FFF7EBFE00F085FCFFF743
:10246000C7FE204602B010BD00E400E0D009002005
:10247000D409002010000020124A12F0070F1ED0CD
:10248000D11D21F00701C1F5406313440A460E48EF
:102490000260002141601344083B23F007030B480E
:1024A000036059601960991A51601360084B1960F4
:1024B000084B1960084B4FF000421A6070474FF408
:1024C0004063E4E7DC090020E8150020D80900207B
:1024D000E4150020E0150020DC150020154B1A46FD
:1024E0001B688342FBD3516802EB010C844509D081
:1024F000416800EB010C634509D00360904218D09D
:10250000106070474068014451601046F0E710B415
:10251000094C2468A3420AD05B68194441601368DF
:102520001B680360904200D0106010BC70470460CC
:10253000F8E77047E8150020D809002070B5054677
:1025400000F0DCFA344B1B68A3B1344B1B681D420E
:102550004AD135B1083515F0070F02D025F007052F
:102560000835002D42D02E4B1B68AB424DD32D4A6F
:10257000146804E0FFF780FFE7E722461C46636823
:10258000AB4202D22368002BF7D1234B1B68A34236
:102590003DD0166808362368136063685B1B102BF8
:1025A00010D9601910F0070F08D04FF0500383F3D3
:1025B0001188BFF36F8FBFF34F8FFEE743606560F5
:1025C000FFF78CFF626816490B689B1A0B6016496F
:1025D00009688B4201D214490B60104B1B681343EE
:1025E00063600023236002E0002600E0002600F084
:1025F00019FB16F0070F0CD04FF0500383F311882E
:10260000BFF36F8FBFF34F8FFEE70026EFE7002683
:10261000EDE7304670BD00BFD8090020DC15002072
:10262000E0150020E8150020E415002080B338B53F
:102630000446A0F1080550F8043C164A12681342FB
:1026400008D14FF0500383F31188BFF36F8FBFF3AE
:102650004F8FFEE750F8081C41B14FF0500383F351
:102660001188BFF36F8FBFF34F8FFEE723EA02039A
:1026700040F8043C00F042FA54F8041C064A13687F
:102680000B4413602846FFF729FF00F0CBFA38BD52
:10269000704700BFDC150020E0150020084B1B68C8
:1026A0001B6823B9074B4FF0FF321A607047044B89
:1026B0001B68DB68DB685A68024B1A60704700BF12
:1026C000F4150020CC1600202DE9F0470746984667
:1026D000089DDDF824900A9C266B02F18042013AA5
:1026E00006EB820626F007064FF0000CBCF10F0F38
:1026F00009D811F80C2004EB0C0383F8342012B134
:102700000CF1010CF2E7002384F84330062D00D9C8
:102710000625E56265644FF0000AC4F848A0201D54
:10272000FFF72BFD04F11800FFF727FD2461C5F129
:102730000705A5616462C4F84CA084F850A0424625
:1027400039463046FFF784FD2060B9F1000F01D013
:10275000C9F80040BDE8F08738B5002407E004EB75
:10276000840293000E481844FFF7FCFC0134062C49
:10277000F5D90C4D2846FFF7F5FC0B4C2046FFF72A
:10278000F1FC0A48FFF7EEFC0948FFF7EBFC0948AB
:10279000FFF7E8FC084B1D60084B1C6038BD00BF0C
:1027A000FC150020A0160020B4160020D41600202E
:1027B00000170020EC160020F4150020F81500206A
:1027C00010B50446FFF76EFD214A1368013313600C
:1027D000204B1B685BB1204B1B686BB91D4B1B6802
:1027E000DA6AE36A9A4207D81A4B1C6004E0194B74
:1027F0001C601368012B28D0184A1368013313603A
:10280000E06A01238340164A11680B43136000EB12
:102810008000211D134B03EB8000FFF7B1FCFFF795
:1028200063FD0D4B1B687BB10A4B1B68DA6AE36AD8
:102830009A4209D24FF0E0234FF08052C3F8042DA2
:10284000BFF34F8FBFF36F8F10BDFFF785FFD3E747
:1028500088160020F0150020E816002098160020A9
:102860009C160020FC15002010B5044690F851304D
:1028700063B1012B11D0022B0ED04FF0500383F324
:102880001188BFF36F8FBFF34F8FFEE7006BFFF729
:10289000CDFE2046FFF7CAFE10BDFFF7C7FEFBE7DF
:1028A0000F4B1B68D3B110B5FFF7FCFC0D4BDB6879
:1028B000DC68201DFFF788FC0B4A1368013B13609E
:1028C000074A1368013B1360FFF70EFD2046FFF730
:1028D000CBFF034B1B68002BE6D110BD704700BF38
:1028E0008C160020001700208816002008B5FFF77E
:1028F000D7FF074B1B68012BF9D94FF0E0234FF0AE
:102900008052C3F8042DBFF34F8FBFF36F8FEEE7F4
:10291000FC15002070B504460D461D4B1E681D4B6E
:1029200018680430FFF750FC48B91A4B1B68DB6A83
:1029300001229A4018490B6823EA02030B60B4F1A4
:10294000FF3F0DD03444134B1B685C60A64210D986
:10295000124B18680F4B19680431FFF71CFC70BD4F
:10296000002DEFD00B4B196804310D48FFF708FC20
:10297000F5E70C4B1868074B19680431FFF70BFC9F
:10298000094B1B68A342EAD9074B1C60E7E700BF6D
:1029900014170020F01500209C160020F8150020C8
:1029A000EC160020F4150020CC16002030B587B0BE
:1029B0000B9C7CB10C9DB5B154250495049D542D00
:1029C0001AD04FF0500383F31188BFF36F8FBFF31A
:1029D0004F8FFEE74FF0500383F31188BFF36F8FE3
:1029E000BFF34F8FFEE74FF0500383F31188BFF31F
:1029F0006F8FBFF34F8FFEE70C9D2C63022485F889
:102A0000514000240394029505AC01940A9C009463
:102A1000FFF75AFE0C98FFF7D3FE059807B030BDBC
:102A20002DE9F04385B00746884614461E469000BF
:102A3000FFF784FD00B381465420FFF77FFD054674
:102A4000B0B1C0F83090E5B1002385F85130039360
:102A500002950D9B01930C9B009333462246414601
:102A60003846FFF731FE2846FFF7AAFE012005E0B1
:102A70004846FFF7DBFDE6E74FF0FF3005B0BDE865
:102A8000F0834FF0FF30F9E710B588B000240594CB
:102A9000069407AA06A905A8FEF7D0F9059B02939C
:102AA000069B019300942346079A0E490E48FFF7B0
:102AB0007DFF0E4B186090B14FF0500383F31188E7
:102AC000BFF36F8FBFF34F8F094B4FF0FF321A6088
:102AD000084B01221A60084B1C60FFF76DFC08B020
:102AE00010BD00BFE4790008ED280008C8160020DA
:102AF000CC160020E816002014170020024A1368A4
:102B000001331360704700BF94160020F8B53A4BAC
:102B10001B68002B64D1394B1D6801351D60C5B998
:102B2000374B1B681B6843B14FF0500383F3118888
:102B3000BFF36F8FBFF34F8FFEE7314A1168314B00
:102B4000186810601960304A136801331360FFF78A
:102B5000A5FD2E4B1B68AB4238D900272C4B1B68B8
:102B6000DB6A03EB83039A002A4B9B58012B3CD969
:102B700001273AE00127224B1B681B6843B3204B17
:102B80001B68DB68DC6863689D4226D3261D3046DF
:102B9000FFF71AFBA36A1BB104F11800FFF714FB3F
:102BA000E36A01229A401C49086802430A6003EB69
:102BB00083039A00314617481044FFF7E1FAE26AAE
:102BC000134B1B68DB6A9A42D4D2D4E70027D2E7C2
:102BD0000E4B4FF0FF321A60C0E70C4A1360BDE79E
:102BE0000E4A13680133136000270D4B1B6803B1B5
:102BF00001273846F8BD00BF9416002014170020A6
:102C0000F4150020F8150020D0160020CC16002066
:102C1000F0150020FC1500209C16002090160020C6
:102C20001817002038B5354B1B6843B94FF05003D7
:102C300083F31188BFF36F8FBFF34F8FFEE7FFF76A
:102C400031FB2E4B1A68013A1A601B68002B4FD1DA
:102C50002B4B1B680BB900244BE00024294B1B684D
:102C60001BB3284BDB68DC6804F11800FFF7ACFAF3
:102C7000251D2846FFF7A8FAE06A01238340224A6F
:102C800011680B43136000EB800029461F4B03EBD8
:102C90008000FFF775FAE26A1D4B1B68DB6A9A42F7
:102CA000DCD31C4B01221A60D8E70CB1FFF7F6FC0D
:102CB000194B1C6884B9174B1C68D4B14FF0E02342
:102CC0004FF08052C3F8042DBFF34F8FBFF36F8FC7
:102CD00001240EE0013C07D0FFF718FF0028F9D0CF
:102CE0000C4B01221A60F5E70B4B00221A60E2E759
:102CF0000024FFF7F9FA204638BD00BF94160020E3
:102D000088160020D41600209C160020FC150020F8
:102D1000F0150020181700209016002010B5A8B15B
:102D20000446104B1B6843B14FF0500383F31188E6
:102D3000BFF36F8FBFF34F8FFEE7FFF7DFFE00217A
:102D40002046FFF7E7FDFFF76DFF48B94FF0E0239E
:102D50004FF08052C3F8042DBFF34F8FBFF36F8F36
:102D600010BD00BF94160020204B1B681BB1204BE8
:102D700001221A6070471E4B00221A601D4B1B680F
:102D8000B3FA83F3DBB2C3F11F0303EB83018A00C1
:102D900019498A5842B94FF0500383F31188BFF3A1
:102DA0006F8FBFF34F8FFEE7134903EB8300820061
:102DB0000A4450684068506003EB830C4FEA8C0271
:102DC00008321144884209D003EB83039A000A4B6E
:102DD00013445B68DA68094B1A60704740686246C2
:102DE0009100054A0A445060EEE700BF94160020A7
:102DF000181700209C160020FC150020F01500205C
:102E0000002310B50446C0E90033C0E904338360F1
:102E100081814366C2818361194608225C3000F0DB
:102E200054F90D4BE46123620C4B63620C4BA362BB
:102E30000C4BE3620C4B9C4206D003F168029442B7
:102E400002D0D0339C4205D104F15800BDE81040B7
:102E500000F0B4B910BD00BF45300008673000086D
:102E60009F300008C33000081C170020024A0349A5
:102E7000034800F069B800BF140000206D57000837
:102E80002000002041680C4B10B59942044601D047
:102E900002F06CFCA168094B994202D0204602F076
:102EA00065FCE168064B994204D02046BDE810401D
:102EB00002F05CBC10BD00BF1C170020841700206E
:102EC000EC17002010B50B4B0B4C0C4A20461A6037
:102ED00004210022FFF794FF04F168000122092178
:102EE000FFF78EFF04F1D0000222BDE8104012214E
:102EF000FFF786BF541800201C1700206D2E000815
:102F0000014800F05DB900BF5E180020014800F0E4
:102F100058B900BF5E18002010B50446FFF7F0FF57
:102F2000636B1BB1BDE81040FFF7F0BF044B636358
:102F3000044B1B68002BF5D1FFF7C4FFF2E700BF7D
:102F4000852E0008541800202DE9F84307468846CE
:102F500014460026D4E90195B9F1010905D5246884
:102F6000002CF7D13046BDE8F883AB89012B07D997
:102F7000B5F90E30013303D029463846C047064321
:102F80006835E9E70FB407B5064904AB086853F89C
:102F9000042B8168019300F08DFC03B05DF804EB15
:102FA00004B070474001002030B5054689B008469E
:102FB0000C46FDF7CDF81E4BCDE9044006930123E6
:102FC0001844079304AB0193022302936B6BAC6824
:102FD000039013B92846FFF79FFF636EDB0705D404
:102FE000A389980502D4A06D00F0EAF8B4F90C307A
:102FF000990406D443F40053A381636E23F4005371
:103000006366284601AA214602F0B8FC636E0028D8
:1030100014BF4FF0FF350A25DA0705D4A3899B05B5
:1030200002D4A06D00F0CDF8284609B030BD00BF35
:103030006F7D0008024B01461868FFF7B5BF00BF5F
:103040004001002010B50C46B1F90E1000F068F8F0
:103050000028ABBF236DA3891B1823F48053ACBF9A
:103060002365A38110BD2DE9F0411F468B890546DC
:10307000DB050C46164605D502230022B1F90E10D9
:1030800000F03CF8A389324623F48053A3812846FC
:103090003B46B4F90E10BDE8F04100F053B810B54E
:1030A0000C46B1F90E1000F029F8431CA38915BF96
:1030B000206523F4805343F48053A38118BFA38178
:1030C00010BDB1F90E1000F009B803460244934256
:1030D00000D1704703F8011BF9E7000038B5002361
:1030E000054D044608462B60FDF7ECFF431C02D15A
:1030F0002B6803B1236038BD5818002038B504464A
:10310000084611460022054D2A601A46FDF7E4FFE5
:10311000431C02D12B6803B1236038BD581800202E
:1031200038B50446084611460022054D2A601A4665
:10313000FDF7AAFF431C02D12B6803B1236038BD01
:103140005818002038B50446084611460022054D9F
:103150002A601A46FDF7A8FF431C02D12B6803B171
:10316000236038BD58180020014B1868704700BF15
:103170004001002070B500260C4D0D4C641BA410BE
:10318000A64209D104F0D0FB00260A4D0A4C641B6C
:10319000A410A64205D170BD55F8043B98470136EE
:1031A000EEE755F8043B98470136F2E77C7D0008CE
:1031B0007C7D00087C7D0008847D00087047704796
:1031C000704770470A44914200F1FF3300D17047C5
:1031D00010B511F8014B914203F8014FF9D110BD20
:1031E000024B13B1024800F005B870470000000020
:1031F000255E0008002301461A46184602F074BEF8
:103200002DE9F041064608200C4602F01FFE8046DC
:10321000224F304600F042FBBB685D6825F0030595
:103220002C1B113C4444B4FBF8F4013C08FB04F4AF
:10323000A04505DD304600F037FB0020BDE8F081F9
:103240000021304602F0DEFDBB682B449842F1D1EC
:103250003046614202F0D6FD013010D100213046E7
:1032600002F0D0FDBA68831A0F2BE3DD0C4943F05E
:10327000010309685360401A0A490860DAE7BB682D
:10328000084A2D1B45F001055D60136830461B1B85
:10329000136000F009FB0120D0E700BF48010020C7
:1032A0005005002064180020F8B505460F46002997
:1032B00000F0B18000F0F2FA57F8042C564822F0E2
:1032C0000104A7F1080303EB040C8168DCF8046037
:1032D000614526F0030602F001021BD126443AB9EB
:1032E00057F8082C9B1A1644D3E90212CA60916061
:1032F00046F001025A608360484B1B68B34204D811
:10330000474B28461968FFF77BFF2846BDE8F84081
:1033100000F0CABACCF80460002A38D157F8081C6B
:1033200000F108075B1A0C449968B94231D0DF6894
:10333000CF60B9600CEB06014968C9070BD4DCF813
:10334000081034443ABB374EB14224D10122C0E9BF
:103350000433C3E9021144F0010159601C51002AF1
:10336000D3D1B4F5007F1BD20121E2086409A1404A
:10337000446801322143416050F8324000EBC20101
:103380000839C3E9024140F83230E360BDE700226A
:10339000D0E70122CEE7DCF80C60CE60B160DAE75E
:1033A000B4F5206F4FEA542214D2A2093832511CCE
:1033B00050F8311000EBC2068E4225D10124921044
:1033C00004FA02F2446822434260C3E90216B36081
:1033D000CB609AE7142A01D85B32E8E7542A02D876
:1033E000220B6E32E3E7B2F5AA7F02D8E20B773206
:1033F000DDE740F254518A4296BFA20C7E227C3215
:10340000D5E789688E4204D04A6822F00302A242BE
:10341000F7D8CE68D9E7F8BD480100205405002050
:10342000941800205001002001F10B03162B2DE908
:10343000F74F054606D933F0070704D50C232B6058
:103440000024A1E11027B942F8D8284600F026FA56
:10345000B7F5FC7FAE4E37D207F10802324454680C
:10346000A2F108018C424FEAD70302D1D468A242EC
:1034700010D06368D4E9021223F00303CA60234426
:1034800091605A6842F001025A60284600F00CFA36
:10349000083479E1023334699E498C4277D06268FE
:1034A00022F0030CACEB07000F2848DDE21940F0D6
:1034B000010347F001076760C6E90422C2E902116F
:1034C000536044F80C00E0E77B0A2AD0042B12D8A2
:1034D000BB0938335A1C06EBC2025468A2F1080C2F
:1034E000644506D0626822F00302D01B0F281CDD61
:1034F000013B0133CFE7142B01D85B33EAE7542BB0
:1035000002D83B0B6E33E5E7B3F5AA7F02D8FB0B7D
:103510007733DFE740F25452934204D8BB0C7C333C
:10352000D8E73F23D6E77E23D4E70028E16804DB11
:10353000A368D9608B60A318A3E70C46D0E70028E6
:10354000C6E9041107DBA444DCF8043043F00103AE
:10355000CCF8043099E7BCF5007F706880F0938068
:103560004FEADC024FEA5C1E4FF0010C0CFA0EFC35
:103570004CEA0000013256F832C0706006EBC2001F
:103580000838C4E902C046F83240CCF80C400122A9
:10359000981082407068904226D3104206D123F0E2
:1035A00003035200104203F10403FAD006EBC308F0
:1035B000C1469E46D9F80C404C4540F0B7800EF10C
:1035C000010E1EF0030F09F10809F3D1980740F02E
:1035D000E180736823EA02037360706852009042CE
:1035E00002D3002A40F0E280D6F808A0DAF80430CE
:1035F00023F00309B94504D3A9EB07020F2A00F30E
:103600004081454B082019680AEB090B10313944F9
:10361000019102F01BFC414A019913688046013375
:103620001FBF01F1FF31091843421940284601919B
:1036300002F0E8FB421C044600F0F6808345019945
:10364000364A02D9B24540F0EF80354BA3451868A1
:1036500008F1FF3C0844186040F0AA801BEA0C0FF8
:1036600040F0A680B268494441F0010151602D4A02
:103670001B6811688B4288BF13602B4A11688B420C
:1036800088BF1360D0E0BCF5206F4FEA5C2218D2EF
:103690004FEA9C12383202F1010E56F83EE006EB7A
:1036A000C208F0452BD14FF0010C92100CFA02F237
:1036B00002437260C4E902E8C8F80840CEF80C4042
:1036C00065E7142A01D85B32E5E7542A03D84FEAAC
:1036D0001C326E32DFE7B2F5AA7F03D84FEADC3244
:1036E0007732D8E740F2545E724596BF4FEA9C426B
:1036F0007E227C32CFE7DEF808E0F04505D0DEF828
:10370000042022F003026245F5D8DEF80C80D1E7F0
:10371000480100205001002094180020500500208E
:10372000641800208C180020901800206068D4F8DD
:103730000CC020F00300A0EB070ABAF10F0F12DD56
:10374000A368E21947F001076760C3F80CC0CCF822
:1037500008304AF00103C6E90422C2E902115360AD
:1037600044F800A091E6BAF1000F11DB2044436851
:1037700043F00103436054F8083F2846C3F80CC0E7
:10378000CCF8083000F090F8204603B0BDE8F08F88
:10379000644611E758F80809013B40453FF416AF6D
:1037A0001BE7043352001042FBD0FFE67346FAE7F2
:1037B000D2F800E0BEF1FF3F1BBFA4EB0B0B0BEBFD
:1037C000000214601A6014F0070B0EBF5846CBF1CC
:1037D00008002418621802EA0C018044A8EB0108D2
:1037E00008EA0C0841462846019202F00BFB431CF4
:1037F000019A294B07D1BBF1000F23D04FF00008ED
:10380000ABF1080010441A68001B4044424440F0E9
:103810000100B245B4601A6060603FF428AFB9F1AE
:103820000F0F12D801236360B3685B6823F00303B2
:10383000BB42A3EB070201D30F2A22DC284600F08B
:1038400033F8FDE51046D846DDE70521DAF8042017
:10385000A9F10C0929F0070902F0010242EA090264
:10386000CAF80420B9F10F0F0AEB0902C2E90111ED
:103870007FF6FDAE28460AF10801FFF715FD064B5D
:10388000F5E6B46847F0010342F0010227446360A3
:10389000B7607A60F9E500BF641800200148FFF7BF
:1038A0008FBC00BF5D1800200148FFF78ABC00BF35
:1038B0005D1800202DE9F04FD3B08A4691461C4692
:1038C0001D46834602F09AFA036818461793FCF7E0
:1038D0003FFC0F90BBF1000F05D0DBF8343013B97B
:1038E0005846FFF719FBDAF86430D80707D4BAF85E
:1038F0000C30990503D4DAF85800FFF761FCBAF9E7
:103900000C309A0409D443F40053AAF80C30DAF8C6
:10391000643023F40053CAF86430BAF80C301B0743
:1039200002D5DAF81030C3B95146584602F070F9A2
:1039300098B1DAF86430DF0706D54FF0FF33129301
:10394000129853B0BDE8F08FBAF80C309E05F4D44D
:10395000DAF85800FFF735FCEFE7BAF80C3003F05F
:103960001A020A2A16D1BAF90E20002A12DBDAF856
:103970006420D50705D4980503D4DAF85800FFF77A
:1039800020FC23464A465146584653B0BDE8F04F06
:1039900001F0ACB900230022CDE9273309930023BD
:1039A000CDE910230023CDE9193329AC26940D93DA
:1039B0001593189312934B461E4613F8012B0AB128
:1039C000252AF9D1B6EB09070DD0289BC4E9009749
:1039D0003B442893279B0133072B279379DC08343A
:1039E000129B3B4412933378002B01F03981002362
:1039F0004FF0FF3298460A272B2101368DF87B3095
:103A000007921393334613F8012B0B920E930B9BE3
:103A1000203B5A2B00F2AE85DFE813F07E00AC05A8
:103A2000AC058600AC05AC05AC056500AC05AC0585
:103A300089009300AC0590009600AC05B200B5007B
:103A4000B500B500B500B500B500B500B500B500CE
:103A5000AC05AC05AC05AC05AC05AC05AC0524016A
:103A6000AC05E200F500240124012401AC05AC05FD
:103A7000AC05AC05C500AC05AC058B04AC05AC05CC
:103A8000AC05D504AC05F604AC05AC051805AC05D1
:103A9000AC05AC05AC05AC05AC05AC05AC0524012A
:103AA000AC05E200F700240124012401C800F7005E
:103AB000DC00AC05D500AC0566048D04C404DC0054
:103AC000AC05D5047C00F804AC05AC053705AC05A5
:103AD0007C005146584626AA01F048F9002840F0DB
:103AE0002D8129AC7CE7584602F088F943681846D6
:103AF0001893FCF72DFB1590584602F07FF9836868
:103B00002B210D93159B2BB10D9B1BB11B780BB17A
:103B100048F480680E9E75E79DF87B30002BF9D144
:103B200020238DF87B30F5E748F00108F2E755F8DF
:103B3000043B002B1393EDDA5B42139348F0040827
:103B4000E8E78DF87B10E5E70E9B13F8012B2A2A96
:103B50000B9212D155F8042B0E9342EAE2720792AF
:103B6000D8E7079807FB0022079213F8012B0B9266
:103B70000B9A303A092AF4D948E700220792F7E76E
:103B800048F08008C6E700220E9B13920B9A139808
:103B9000303A07FB0022139213F8012B0B92303AB4
:103BA000092AF3D932E748F00808B3E70E9B1B78DF
:103BB000682B01BF0E9B48F4007801330E9318BFA9
:103BC00048F04008A6E70E9B1B786C2B05D10E9B96
:103BD00001330E9348F020089CE748F0100899E75D
:103BE0002A4652F8043B8DF8E43000230A928DF8FF
:103BF0007B300027089301233E463D4607930C97F0
:103C00000DF1E409B8E148F0100818F0200F11D0C8
:103C1000073525F007031A4652F8085B5E680A92DA
:103C2000002E05DA2D236D4266EB46068DF87B30BB
:103C3000012391E32B4653F8046B18F0100F0A93FD
:103C400002D03546F617EBE718F0400F03D035B237
:103C500046F3C036E4E718F4007FF2D075B246F3BD
:103C6000C016DDE7073525F007031946F1E8022302
:103C7000CDE91023DDE9106323F000450A914FF0F0
:103C8000FF32304629463E4BFCF7C0FE18BB4FF0D2
:103C9000FF32304629463A4BFCF79AFED8B9DDE9A7
:103CA000100100220023FCF789FE10B12D238DF8AE
:103CB0007B30344A344B0B9928F080084729D4BF15
:103CC0009146994603230021CDE9073100273E465E
:103CD0003B4601F003B8DDE9102310461946FCF716
:103CE00095FE40B1119B294A002BBCBF2D238DF8B6
:103CF0007B30274BDFE70B9B23F02003412B0C93FA
:103D00002ED130238DF87C300B9B48F00208612BBC
:103D10000CBF782358238DF87D30079B632B39DD4A
:103D20005846591CFFF780FB8146002840F000826E
:103D3000BAF80C3043F04003AAF80C30DAF86430DB
:103D4000D90707D4BAF80C309A0503D4DAF858002A
:103D5000FFF737FABAF80C305B067FF5F1ADECE50A
:103D6000079B013300F0E6810C9B472B40F0E58177
:103D7000079B002B40F0E1810893012307930CE09F
:103D8000FFFFEF7FE9790008ED790008F17900087D
:103D9000F579000808900DF1E40948F48073149354
:103DA000DDE910731D1EAEBF002303F100452D2376
:103DB0001C930C9B412B40F0D881384620AA294601
:103DC00002F05EF800224FF07F53FCF785FB0022E3
:103DD000002306460F46FCF7E7FD08B101232093B8
:103DE000AD4BAE4A0B994D46612918BF1A46079B49
:103DF0001B92013B09930022A94B30463946FCF740
:103E00006BFB0F460646FCF717FE1D90FCF7FAFA0F
:103E100002460B4630463946FCF7A6F91D9A1B9B15
:103E200006469B5C0F4605F8013B099B5A1C1693FE
:103E300007D0013B099300220023FCF7B5FD0028C1
:103E4000D9D0002230463946964BFCF7D5FD60B9F3
:103E5000002230463946934BFCF7A6FD002800F0BF
:103E60007F811D9BDA0740F17B8130201B9B2495CD
:103E7000D97B249A531E249312F8013C8B4200F004
:103E80005E81392B0BBF1B9B01339B7ADBB202F89F
:103E9000013CA5EB090309930C9B209D472B40F0A7
:103EA000B381EB1C03DB079BAB4280F2D3810B9BFE
:103EB000023B0B930B999DF82C2021F02001412906
:103EC00008BF0F3205F1FF3306BFD2B20121002136
:103ED000002B8DF88820B4BF2D222B222093B8BF51
:103EE000C5F10103092B8DF8892040F3A6810A262C
:103EF0000DF1970093FBF6F5024606FB15313031C4
:103F000002F8011C194663292B4600F1FF30F1DC51
:103F10003033911E00F8013C0B460DF189050DF17F
:103F200097008342C0F084810DF199039B1A81426E
:103F300088BF00230DF18A021A4422ABD31A099AD2
:103F40001993012A1344079302DC18F0010F03D0E0
:103F5000079B0F9A134407930026354628F4806385
:103F600043F4807314930C961C9B13B12D238DF88E
:103F70007B300027DDF85080079BBB42B8BF3B4633
:103F800014939DF87B3013B1149B0133149318F0F4
:103F900002031B931EBF149B0233149318F0840377
:103FA0001C9321D1DDE913329B1A002B16931BDDE4
:103FB000DDE927231698013210283B4804F1080157
:103FC000206000F3E6821698072A0344CDE92723F0
:103FD000606040F3F3825146584626AA00F0C6FEC0
:103FE000002840F01B8629AC9DF87B20289B6AB1F5
:103FF0000DF17B022260012213442893279B62600B
:104000001344072B279300F3DB8208341B9A289B69
:1040100062B11FAA2260022213442893279B626088
:104020000133072B279300F3D58208341C9B802B88
:1040300021D1DDE913329B1A002B16931BDDDDE93C
:104040002723169801321028184804F1080120602F
:1040500000F3CA821698072A0344CDE9272360603B
:1040600040F3D7825146584626AA00F07FFE00282A
:1040700040F0D48529AC079BFF1A002F28DDDDE92D
:1040800027320A48102F03F1010304F108012060D0
:1040900000F3C1820CE000BF0A7A0008F979000839
:1040A000000030400000E03F1D7A00082D7A000833
:1040B0006760072B1744CDE9273740F3BF8251468D
:1040C000584626AA00F052FE002840F0A78529ACE9
:1040D00018F4807F289F40F0B782079BC4F80090B7
:1040E0001F4463602897279B0133072B279300F316
:1040F000F082083418F0040F40F07285DDE91232C6
:1041000014998A42ACBF9B185B181293289B3BB151
:104110005146584626AA00F029FE002840F07E8528
:1041200000232793089B002B40F0948529ACE6E000
:10413000089032E60623089020E608902DE602F863
:10414000010C96E603F8010BCA1A002AFADA169A4D
:10415000169B013203F10103B8BF00231D4498E60A
:10416000169A2B463020A918EEE70C9B462B05D05B
:10417000452B1DD1079B5E1C022301E00323079EF4
:1041800024AA049221AA039220AACDE901620093F5
:104190003A462B46584601F073FF0C9B8146472B4D
:1041A00008D118F0010F05D1249BA3EB090372E697
:1041B000079EE1E709EB060309930C9B462B11D1FF
:1041C00099F80030302B09D10022002338462946C7
:1041D000FCF7EAFB10B9C6F101062096099A209B6C
:1041E0001A4409920022002338462946FCF7DCFBDA
:1041F00008B1099B24933022249B09999942D3D971
:10420000591C24911A70F7E70C9B462B7FF452AE91
:10421000079A08F00103002D43EA020329DD002B71
:1042200034D00F9BEB181A44079266230B9333E0AC
:1042300013F8016B05F8016F73E641B930228DF870
:104240008A200DF18B02303302F8013B75E60DF147
:104250008A02F8E7099BAB4210DD099B0F9A002DFB
:104260001344079310DC079AC5F101031A4407921F
:104270000AE06BB10F9B079A0133D4E718F0010FE6
:104280001FD00F9BEB1807936723CFE70795CCE769
:1042900066230B930123079318F480630C9321D0BA
:1042A0000026002D0C967FF75FAE0D9B1B78FF2B31
:1042B00009D10C9B079A1599334401FB03230793FB
:1042C00052E60795E0E7AB42F3DAED1A0D9B5B7817
:1042D00033B10C9B01330C930D9B01330D93E4E739
:1042E0000136E2E70C9E3FE62B1D18F0200F0A93E3
:1042F0000AD0129A2B681299D217C3E900120A9DAC
:10430000DDF83890FFF757BB18F0100F03D02B687B
:10431000129A1A60F3E718F0400F03D02B68129A34
:104320001A80ECE718F4007FF1D02B68129A1A700B
:10433000E5E748F0100818F0200320D0073525F0F5
:1043400007031A4652F8085B5E680A92002328F4B5
:10435000806800228DF87B20079A013200F08F845C
:1043600028F08002089255EA060240F08E84079AEF
:10437000002A00F0F480012B40F08A849EE02A4657
:1043800052F8045B18F010060A9201D01E46DDE7D1
:1043900018F0400301D0ADB2D8E718F40076D5D0BC
:1043A000EDB2F3E72B4653F8045B78220A9347F605
:1043B0003003ADF87C30A24B00261A9348F0020877
:1043C00002230B92C5E72B46002553F8049B8DF87A
:1043D0007B500A93079B5E1C10D01A46294648461C
:1043E00001F040FD0890002800F0D080A0EB090308
:1043F0002F462E46CDE907350C95BDE54846FBF71F
:10440000A7FECDE9070561E448F0100818F0200385
:1044100009D0073525F007031A4652F8085B5E6895
:104420000A92012395E72A4652F8045B18F0100619
:104430000A9201D01E46F4E718F0400301D0ADB255
:10444000EFE718F40076ECD0EDB2F3E77D4B1A936A
:1044500018F020031BD0073525F007031A4652F841
:10446000085B5E680A9218F0010F0AD055EA06034D
:1044700007D030238DF87C300B9B48F002088DF874
:104480007D30022328F4806863E76D4BDFE72A461E
:1044900052F8045B18F010060A9201D01E46E2E7BB
:1044A00018F0400301D0ADB2DDE718F40076DAD0A1
:1044B000EDB2F3E70A2D76F1000305D230358DF821
:1044C00047510DF24719FFE300230993089B52AFB0
:1044D00003F480630C930A22002328463146FCF73C
:1044E000D3FA099B3032013309930C9B8846149010
:1044F00007F1FF3907F8012CD3B10D9B099A1B78FE
:104500009A4215D1FF2A13D00A2D76F100030FD35A
:10451000159B1899A9EB03091A46484601F054FC6B
:104520000D9B5B781BB10D9B01330D930023099309
:104530000A2D76F10006C0F0C78346464F46149D0B
:10454000C9E71A9A05F00F03D35C2D0945EA0675F1
:10455000360909F8013D55EA0603F2D1B4E333B94F
:1045600018F0010F03D030238DF84731A9E70DF57E
:10457000A479A9E30B9B002B00F072838DF8E43043
:1045800000230A958DF87B30FFF733BB089FFFF7B8
:104590009EBB1020072A0344CDE92723606008DD75
:1045A0005146584626AA00F0E1FB002840F0368329
:1045B00029A9169B0C46103B1693F9E40C4613E50B
:1045C0005146584626AA00F0D1FB002840F0268329
:1045D00029AC1BE55146584626AA00F0C7FB002827
:1045E00040F01C8329AC21E51020072A0344CDE9C3
:1045F0002723606008DD5146584626AA00F0B6FB26
:10460000002840F00B8329A9169B0C46103B1693FB
:1046100015E50C462FE51020072B0244CDE9273283
:10462000606008DD5146584626AA00F09FFB00282E
:1046300040F0F48229A90C46103F20E50C4647E5DE
:10464000F97900080A7A00080B9B652B40F32E824B
:10465000DDE9100100220023FCF7A6F9002868D04C
:104660006D4B236001231F446360279B2897013310
:10467000072B279337DC0834209B099A934203DBEE
:1046800018F0010F3FF436AD179B0F9A23600F9B74
:104690006360289B13442893279B0133072B2793A0
:1046A0002BDC0834099B5D1E002D7FF723AD1027FE
:1046B0005A4E102DDDE9273204F1080103F1010300
:1046C000266024DC6560072B1544CDE9273540F3CF
:1046D00084825146584626AA00F048FB002840F044
:1046E0009D8229AC06E55146584626AA00F03EFBBD
:1046F000002840F0938229ACBEE75146584626AACE
:1047000000F034FB002840F0898229ACCAE710325F
:10471000072BCDE92732676008DD5146584626AAA7
:1047200000F024FB002840F0798229A90C46103DB6
:10473000BFE7209B002B73DC374B236001231F4412
:104740006360279B28970133072B27933DDC0834B0
:104750000999209B289A0B4308F001010B433FF471
:10476000C9AC179B23600F9B1A446360279B289258
:104770000133072B279332DC0834209D002D1BDAF0
:1047800023461027254E6D42102DDDE9272104F127
:10479000080402F101021E602BDC5D60072A0D4453
:1047A000CDE9272508DD5146584626AA00F0DEFA55
:1047B000002840F0338229AC099B099A6360289B4A
:1047C000C4F80090134428938DE45146584626AA15
:1047D00000F0CCFA002840F0218229ACB8E751461D
:1047E000584626AA00F0C2FA002840F0178229ACE9
:1047F000C3E71031072ACDE927215F6008DD514664
:10480000584626AA00F0B2FA002840F0078229ACE8
:104810002346103DB8E700BF1B7A00082D7A000838
:10482000099BAB42A8BF2B46002B07930ADD1F4410
:10483000C4E90093279B28970133072B279300F3A4
:1048400084800834079B002BB4BF2F46EF1A002F3B
:1048500019DDDDE927329448102F03F1010304F13B
:10486000080120607BDC6760072B1744CDE9273700
:1048700040F388805146584626AA00F077FA00286F
:1048800040F0CC8129AC18F4806F4D4409D00C9BCA
:10489000002B79D1002E79D1099B4B449D4228BF32
:1048A0001D46209B099A934202DB18F0010F0ED09F
:1048B000179B0F9A23600F9B6360289B13442893D8
:1048C000279B0133072B279300F3DA800834099BD9
:1048D000209E9E1B4B445B1B9E42A8BF1E46002E83
:1048E000289B0ADD33442893279BC4E900560133F3
:1048F000072B279300F3CE800834209D099B002EC0
:10490000A3EB0505A8BFAD1B002D7FF7F3AB102768
:10491000654E102DDDE9273204F1080103F1010392
:1049200026607FF7CFAE1032072BCDE927326760C4
:1049300008DD5146584626AA00F018FA002840F033
:104940006D8129A90C46103DE3E75146584626AA39
:1049500000F00CFA002840F0618129AC72E71020C9
:10496000072B0244CDE92732606008DD51465846E6
:1049700026AA00F0FBF9002840F0508129A90C4636
:10498000103F66E70C467EE7002E49D0013E189B9B
:10499000159A2360159B6360289B13442893279BDB
:1049A0000133072B279342DC0834099B4B445A1BE5
:1049B0000D9B1B789A42A8BF1A46002A289B079293
:1049C00009DD13442893279BC4E900520133072BC8
:1049D000279336DC08340D9B1F78079B002BA8BF5C
:1049E000FF1A002F18DDDDE927322F48102F03F1C1
:1049F000010304F1080120602DDC6760072B1744D8
:104A0000CDE927373ADD5146584626AA00F0AEF9DF
:104A1000002840F0038129AC0D9B1B781D4436E72C
:104A20000D9B013B0D930C9B013B0C93AFE7514653
:104A3000584626AA00F09AF9002840F0EF8029ACE9
:104A4000B3E75146584626AA00F090F9002840F0F6
:104A5000E58029ACBFE71020072B0244CDE92732BF
:104A6000606008DD5146584626AA00F07FF900280C
:104A700040F0D48029A90C46103FB4E70C46CBE7A0
:104A80005146584626AA00F071F9002840F0C68029
:104A900029AC1CE75146584626AA00F067F90028C1
:104AA00040F0BC8029AC28E72D7A0008099A279BA2
:104AB000012A07F1010703F1010304F1080502DCF3
:104AC00018F0010F7ED00122072BCDE92737C4F85B
:104AD0000090626008DD5146584626AA00F046F96B
:104AE000002840F09B8029AD179B0F9A2B600F9BED
:104AF0006B60289B13442893279B0133072B279334
:104B000032DC0835099B0022DDE91001DDE927765A
:104B10005C1E0023FBF748FF00282ED109F101039A
:104B2000C5E90034099B0137013E1E44072FCDE93A
:104B3000277650DD5146584626AA00F017F900287E
:104B40006CD129AD22AB2B60199B199A6B60289B05
:104B500013442893279B0133072B27933FF7B9ADC5
:104B600005F10804FFF7C6BA5146584626AA00F0D8
:104B7000FDF8002852D129ADC4E7002CE2DD102752
:104B8000584E102CDDE9273205F1080103F101032D
:104B90002E6007DC6C60072B1444CDE92734C9DC98
:104BA0000D46CFE71032072BCDE927326F6006DDC7
:104BB0005146584626AA00F0D9F878BB29A90D46D7
:104BC000103CDEE70122072BCDE92737C4F800901F
:104BD0006260B7DDAEE70835B4E70C46FFF78ABA86
:104BE000DDE913329D1A002D7FF788AA10273E4E6B
:104BF000102DDDE92732266003F1010318DC656022
:104C0000072B1544CDE927357FF778AA514658463A
:104C100026AA00F0ABF800283FF470AA089B002BEE
:104C20003FF48CA819465846FEF73EFBFFF786B8BE
:104C30001032072BCDE92732676002DC0834103DC3
:104C4000D6E75146584626AA00F090F80028E5D14C
:104C500029ACF4E758460899FEF726FBFFF766BA39
:104C6000289B1BB900232793FFF768B85146584685
:104C700026AA00F07BF80028F4D0FFF75FB855EAC9
:104C80000602CDF820803FF476AB012B3FF412AC46
:104C9000022B0DF5A4793FF454AC05F00703ED08A1
:104CA00045EA4675F608303355EA06014A4609F8E2
:104CB000013DF2D10899C80706D5302B04D0302326
:104CC00009F8013CA2F1020952ABA3EB0903079FCB
:104CD000079300231E46DDF8208008931D460C93A1
:104CE000FFF74AB92D7A00081D7A0008F0B51F4673
:104CF0008B89ADF26C4D23F00203ADF80C304B6E96
:104D000015461993CB890646ADF80E30CB6916A827
:104D100007934B6A0C4609931AAB009304934FF424
:104D200080630293059300230693FEF747FA2A4611
:104D30003B4669463046FEF7BDFD051E07DB69466A
:104D4000304600F0F5FD002818BF4FF0FF35BDF8E4
:104D50000C3016985B0642BFA38943F04003A38141
:104D6000FEF72DFA28460DF26C4DF0BD2DE9F84FF7
:104D7000936880460F46144643B34B6E9D0422D57C
:104D8000156808354FF0000955E902B64FEA960A52
:104D9000CA450DDCA06826F00306801BA06008351C
:104DA0000028EFD10023A36000236360BDE8F88FE3
:104DB0003A4640465BF8291000F0C3FF431CF1D08F
:104DC00009F10109E4E700F0D9FDEBE71846EBE74C
:104DD0002DE9F04FBDB00F461D461C46814602929C
:104DE00018B1436B0BB9FEF797F87B6ED80705D463
:104DF000BB89990502D4B86DFEF7E2F9B7F90C301A
:104E00009A0406D443F40053BB817B6E23F4005311
:104E10007B66BB891E0701D53B69ABB9394648465D
:104E200000F0F6FE80B17B6ED80706D54FF0FF3359
:104E3000039303983DB0BDE8F08FBB899905F5D485
:104E4000B86DFEF7BEF9F1E7BB8903F01A020A2A32
:104E500014D1B7F90E20002A10DB7A6ED20704D4E1
:104E60009E0502D4B86DFEF7ACF92B46394648468C
:104E7000029A3DB0BDE8F04F00F038BC0023CDE908
:104E80001133CDE90633CDE9083313AE1096039301
:104E9000029B1D4613F8012B0AB1252AF9D1029B6A
:104EA000B5EB03080DD0C6E90038129B43441293BA
:104EB000119B0133072B119376DC0836039B434487
:104EC00003932B78002B00F0D28300234FF0FF32A6
:104ED0009A4601358DF83B30019204932A4612F828
:104EE000013B0292A3F120025A2A00F21A83DFE862
:104EF00012F07D0018031803850018031803180327
:104F00006500180318038800920018038F009400AE
:104F10001803AF00B200B200B200B200B200B2009B
:104F2000B200B200B20018031803180318031803E4
:104F30001803180318031803DC00EA001803180309
:104F40001803180318031803180318031803180389
:104F500039011803180318037E0118035C021803B3
:104F600018037C0218031803180318031803180306
:104F70001803180318031803DC00EC0018031803C7
:104F80001803C200EC00D6001803CF001803170165
:104F90003B017001D60018037E017B005E021803FE
:104FA0001803980218037B003946484610AAFFF7F9
:104FB000DDFE002840F03A8313AE7FE7484600F05C
:104FC0001DFF436818460993FBF7C2F8089048464E
:104FD00000F014FF83680793089B2BB1079B1BB15C
:104FE0001B780BB14AF4806A029D77E79DF83B304D
:104FF000002BF9D120238DF83B30F5E74AF0010A68
:10500000F2E754F8043B002B0493EDDA5B4204937F
:105010004AF0040AE8E72B23EDE7029A12F8013B75
:105020002A2B12D154F8043B43EAE373CDE9013251
:10503000DAE70A20019B00FB0313019312F8013BFE
:10504000A3F130010929F4D94BE700210191F7E7D9
:105050004AF0800AC8E70021029A04910A200499C4
:10506000303B00FB0133049312F8013BA3F1300104
:105070000929F3D935E7029B1B78682B01BF029BF6
:105080004AF4007A0133029318BF4AF0400AABE7B2
:10509000029B1B786C2B05D1029B013302934AF0D3
:1050A000200AA1E74AF0100A9EE7A04658F8043B00
:1050B0008DF88C3000238DF83B3001221D46019283
:1050C0000DF18C0BA8E04AF0100A1AF0200F10D056
:1050D000073424F0070398465D6858F8084B002D04
:1050E00005DA2D23644265EB45058DF83B3001233D
:1050F0004AE0A0461AF0100F58F8045B02D02C4684
:10510000ED17ECE71AF0400F03D02CB245F3C03591
:10511000E5E71AF4007FF2D06CB245F3C015DEE784
:105120001AF0200F04F1040807D0039A23680399AA
:10513000D217C3E900124446AAE61AF0100F03D0B2
:105140002368039A1A60F6E71AF0400F03D0236829
:10515000039A1A80EFE71AF4007FF1D02368039ACC
:105160001A70E8E74AF0100A1AF020031FD007343B
:1051700024F0070398465D6858F8084B00232AF48A
:10518000806A00228DF83B20019A013200F07C8277
:105190002AF08002059254EA050240F07B82019ACF
:1051A000002A00F0B381012B40F0778251E1A04644
:1051B0001AF0100558F8044B01D01D46DEE71AF02E
:1051C000400301D0A4B2D9E71AF40075D6D0E4B2F6
:1051D000F3E747F63003A0460025ADF83C30A04B7E
:1051E00058F8044B4AF0020A06930223C9E7A04686
:1051F0000025019B58F804BB5C1C8DF83B5000F067
:10520000CF801A462946584600F02CFE002800F0B0
:105210009281A0EB0B030193019B9DF83B20AB42D5
:10522000B8BF2B4605930AB1013305931AF0020368
:105230000A931EBF059B023305931AF084030B9358
:105240001FD1DDE904329C1A002C1ADD854B102C8D
:10525000DDE9112106F1080002F10102336000F3DB
:105260006C817460072A0C44CDE9112440F37A81E3
:105270003946484610AAFFF779FD002840F0D6814C
:1052800013AE9DF83B00DDE9112160B10DF13B004B
:105290003060012001320144072ACDE911217060FC
:1052A00000F3628108360A9BDDE911215BB10FA88A
:1052B0003060022001320144072ACDE911217060DB
:1052C00000F35B8108360B9B802B1FD1DDE9043294
:1052D0009C1A002C1ADD644B102CDDE9112106F11B
:1052E000080002F10102336000F350817460072A64
:1052F0000C44CDE9112440F35E813946484610AA9A
:10530000FFF734FD002840F0918113AE019BEC1AA9
:10531000002C1BDD1023544D102CDDE9112106F16A
:10532000080002F10102356000F347817460072A2A
:105330000C44CDE9112440F351813946484610AA66
:10534000FFF714FD002840F0718113AE019B019A14
:105350007360129BC6F800B013441293119B013383
:10536000072B119300F33C8106F108031AF0040F98
:1053700040F03E81DDE9033205998A42ACBF9B18BB
:105380005B180393129B3BB13946484610AAFFF7BE
:10539000EDFC002840F04A81002313AE1193CAE6C9
:1053A0005846FAF7D5FE019036E74AF0100A1AF08F
:1053B000200308D0073424F0070398465D6858F8A6
:1053C000084B0123DDE6A0461AF0100558F8044BFF
:1053D00001D01D46F5E71AF0400301D0A4B2F0E772
:1053E0001AF40075EDD0E4B2F3E7204A06921AF001
:1053F000200218D0073424F007029046556858F868
:10540000084B1AF0010F09D054EA05021FBF3022E1
:105410008DF83D308DF83C204AF0020A2AF4806A6B
:10542000E3E60F4AE2E7A0461AF0100558F8044BED
:1054300001D01546E5E71AF0400201D0A4B2E0E73A
:105440001AF40075DDD0E4B2F3E70A2C75F100031D
:105450000ED230348DF8EF400DF1EF0B39E100BF83
:10546000F97900083D7A00084D7A00080A7A0008A8
:105470004FF0000A3CAB0A93059B03F480630B9347
:105480000A22002320462946FBF7FEFA0A9B303207
:1054900003F1FF3B03F8012C0B9BCDE90C010AF152
:1054A000010ACBB1079B1A78524515D1BAF1FF0F0B
:1054B00012D00A2C75F100020ED3089B0999ABEBB0
:1054C000030B1A46584600F07FFC079B5A786AB1D6
:1054D0004FF0000A013307930A2C75F10005C0F064
:1054E000F880DDE90C45CDF828B0C9E79246F3E72E
:1054F000069B04F00F029A5C240944EA05742D0906
:105500000BF8012D54EA0502F2D1E2E033B91AF0AA
:10551000010F03D030238DF8EF309DE70DF1F00B34
:10552000D7E0002B00F0A3808DF88C300023A0463C
:105530008DF83B30C1E505466EE64FF0100C072AAA
:105540006144CDE91121C6F804C008DD394648465A
:1055500010AAFFF70BFC002868D1624B13A806467F
:10556000103C74E606468CE63946484610AAFFF71A
:10557000FDFB00285AD113AE95E63946484610AADD
:10558000FFF7F4FB002851D113AE9CE64FF0100C4E
:10559000072A6144CDE91121C6F804C008DD394667
:1055A000484610AAFFF7E2FB00283FD14E4B13A854
:1055B0000646103C90E60646A8E61031072ACDE9DB
:1055C0001121736007DD3946484610AAFFF7CEFB6C
:1055D00060BB102313A80646103C9DE60646B5E6C0
:1055E0003946484610AAFFF7C1FBF8B913ABBDE630
:1055F000DDE90421541A002C7FF7BCAE1026394D8A
:10560000102CDDE911211D6002F101021DDC5C603E
:10561000072A0C44CDE911247FF7ACAE3946484641
:1056200010AAFFF7A3FB00283FF4A4AE7B6ED907B6
:1056300005D4BB899A0502D4B86DFDF7C2FDBB89BC
:105640005B067FF5F6ABFFF7F1BB1031072ACDE91A
:1056500011215E6002DC0833103CD1E73946484630
:1056600010AAFFF783FB0028E0D113ABF4E7129BED
:1056700013B900231193D9E73946484610AAFFF71A
:1056800075FB0028F5D0D1E754EA0502CDF814A047
:105690003FF489AD012B3FF4D8AE022B0DF1F00B96
:1056A0003FF426AF04F00702E40844EA4574ED082D
:1056B000303254EA050059460BF8012DF2D1059B12
:1056C000D80706D5302A04D030220BF8012CA1F1DE
:1056D000020B3CABA3EB0B03019DDDF814A001937F
:1056E0009AE500BF3D7A00084D7A0008F0B51F46E4
:1056F0008B89ADF26C4D23F00203ADF80C304B6E8C
:1057000015461993CB890646ADF80E30CB6916A81D
:1057100007934B6A0C4609931AAB009304934FF41A
:1057200080630293059300230693FDF747FD2A4605
:105730003B4669463046FFF74BFB051E07DB6946D3
:10574000304600F0F5F8002818BF4FF0FF35BDF8DF
:105750000C3016985B0642BFA38943F04003A38137
:10576000FDF72DFD28460DF26C4DF0BD70B50646D7
:105770000C4611B90025284670BD18B1436B0BB912
:10578000FDF7CAFB636ED80705D4A389990502D437
:10579000A06DFDF715FDB4F90C303BB9656E15F041
:1057A0000105E7D1A06DFDF70CFDE4E72146304689
:1057B00000F034F8E36A054633B13046E1699847B2
:1057C0000028B8BF4FF0FF35A3891A0603D530462D
:1057D0002169FDF769FD216B41B104F14003994254
:1057E00002D03046FDF760FD00232363616C21B1D8
:1057F0003046FDF759FD00236364FDF781FB00236C
:10580000A381636EDB0702D4A06DFDF7DAFCA06D07
:10581000FDF7D5FCFDF77AFBADE70000F8B58B8905
:10582000054618070C46B1F90C205ED44B6842F4CB
:105830000062002B8A8104DCCB6B002B01DC002092
:10584000F8BDA66A002EFAD0002312F480522F6809
:10585000E1692B6036D0206DA3895A0705D56368AE
:10586000C01A236B0BB1E36BC01A00230246A66A71
:105870002846E169B047431CA38906D129681D2940
:105880002FD82A4A0A41D6072BD4002223F40063DA
:105890001BB262602269D904A381226004D5421C34
:1058A00001D12B6803B92065216B2F600029C6D078
:1058B00004F14003994202D02846FDF7F5FC002090
:1058C0002063BDE701232846B047411CC4D12B68A3
:1058D000002BC1D01D2B01D0162B01D12F60AEE7BC
:1058E000A38943F04003A381AAE70F69002FA6D044
:1058F0009B0718BF00230E6808BF4B69F61B0F609B
:105900008B60002E9BDD33463A462846E169D4F889
:1059100024C0E047002806DCA3894FF0FF3043F0A5
:105920004003A3818CE70744361AEAE7FEFFBFDF96
:1059300038B50C46054618B1436B0BB9FDF7ECFAC8
:10594000B4F90C00B8B1636EDB0704D4810502D44E
:10595000A06DFDF735FC28462146FFF75FFF636E1B
:105960000546DA0705D4A3899B0502D4A06DFDF78F
:1059700028FC284638BD0546FBE7000093682DE962
:10598000F74F06460C4691461BB9002003B0BDE810
:10599000F08F8B8918074FD50B69002B4CD0A3894A
:1059A000D9F8008013F002076BD113F0010300F067
:1059B0009B803846BA46BB46BBF1000F00F002811F
:1059C00050B95A460A21504600F04CFA002800F01F
:1059D000FF800130A0EB0A07206821695F453A4645
:1059E00028BF5A468842A568636940F2F4801D4486
:1059F000AA4240F3F08051462A4600F0CBF92368D2
:105A000021462B4430462360FFF792FF002866D1E1
:105A10007F1B40F0F88021463046FFF789FF0028C1
:105A20005DD1D9F80830AA445B1BABEB050BC9F874
:105A30000830002BC0D1A8E72146304600F0E8F836
:105A40000028ACD04FF0FF30A0E7D8E900A508F15E
:105A50000808D4F824B0E169002DF6D0BD422B46E9
:105A6000524628BF3B463046D847002837DDD9F894
:105A7000083082441B1A2D1AC9F80830002BE8D1CF
:105A800083E74FF0000A614F5546E2E7D8E9007A14
:105A900008F108082068A268BAF1000FF6D0A389BF
:105AA000990563D5524536D813F4906F33D02169E8
:105AB0006569A0EB010B05EB450505EBD5750BF111
:105AC00001026D105244954238BF15465B053DD525
:105AD00029463046FDF7A8FC48B90C233360A3895A
